1023586351000121155047396     G L DA S NUNES LTDA                BELEM                         PA00000000002025020120250228331
11Rua VEIGA CABRAL                  00378                      Maracajá - Mosq66911030GISELE LIMA DA SILVA NUNES  091985614217
9023586351000121155047396     500000000051000000005300000000550000000061000000007000000000710000000074000000007500000000     2
9023586351000121155047396     76000000007700000000850000000086000000009900000004                                             2
